:06011B0004087261766920
:10008F007F387E001201097F067E001201097F0C66
:10009F007E001201097F807E001201097F017E0020
:1000AF00120109E4F50CF50D7408250DF8E6F5A01D
:1000BF007F067E001200E27FC07E00120109050D4F
:1000CF00E50D7002050CD39403E50C940040D9E4C0
:0300DF00FEFF22FF
:100109008FA0C2B0C2B2D2B17F037E001200E2C298
:02011900B12211
:1000E200E4FDFCD3ED9FEC9E501CE4F50CF50D05F0
:1000F2000DE50D7002050CB4E9F5E50CB403F00D45
:06010200BD00010C80DDD0
:0101080022D4
:03000000020003F8
:0C000300787FE4F6D8FD75810D02004AFC
:10000F0002008FE493A3F8E493A34003F68001F278
:10001F0008DFF48029E493A3F85407240CC8C333F2
:10002F00C4540F4420C8834004F456800146F6DFC1
:10003F00E4800B010204081020408090011BE47E35
:10004F00019360BCA3FF543F30E509541FFEE493B6
:10005F00A360010ECF54C025E060A840B8E493A37D
:10006F00FAE493A3F8E493A3C8C582C8CAC583CAA8
:10007F00F0A3C8C582C8CAC583CADFE9DEE780BE60
:0101210000DD
:00000001FF
