:0600E40004087261766958
:1000BD00E4F50CF50D7408250DF8E6F5A07F017E2D
:1000CD000012008F050DE50D7002050CD39403E5AC
:0700DD000C940040E080D903
:10008F00E4F50EF50FD3E50F9FE50E9E501FE4F537
:10009F0010F5110511E51170020510B431F5E510D9
:0E00AF00B475F0050FE50F70DC050E80D82249
:03000000020003F8
:0C000300787FE4F6D8FD75811102004AF8
:10000F000200BDE493A3F8E493A34003F68001F24A
:10001F0008DFF48029E493A3F85407240CC8C333F2
:10002F00C4540F4420C8834004F456800146F6DFC1
:10003F00E4800B01020408102040809000E4E47E6D
:10004F00019360BCA3FF543F30E509541FFEE493B6
:10005F00A360010ECF54C025E060A840B8E493A37D
:10006F00FAE493A3F8E493A3C8C582C8CAC583CAA8
:10007F00F0A3C8C582C8CAC583CADFE9DEE780BE60
:0100EA000015
:00000001FF
