:10024E00103A20454E5445522050415353574F5269
:10025E0044000C182020202057454C434F4D45009C
:10026E0010082050415353574F5244204552524F7D
:02027E0052002C
:10000300C293C2947F3812030E7F0612030E7F0C35
:1000130012030E7F8012030E7F0112030E1202B031
:100023007FC012030E752431752535752639752762
:1000330037752835752933752A34752B35752C3664
:1000430075B0FFC2B020B40D30B4FD7F311202F899
:100053007F3112030275B0FFC2B020B50D30B5FD7C
:100063007F321202F87F3212030275B0FFC2B02052
:10007300B60D30B6FD7F331202F87F3312030275DB
:10008300B0FFC2B120B40D30B4FD7F341202F87F4B
:100093003412030275B0FFC2B120B50D30B5FD7F38
:1000A300351202F87F3512030275B0FFC2B120B6D4
:1000B3000D30B6FD7F361202F87F3612030275B09B
:1000C300FFC2B220B40D30B4FD7F371202F87F3780
:1000D30012030275B0FFC2B220B50D30B5FD7F38F3
:1000E3001202F87F3812030275B0FFC2B220B60DB8
:1000F30030B6FD7F391202F87F3912030275B0FF63
:10010300C2B320B41530B4FDC293D2947F587E029B
:10011300120289C293C2941202B075B0FFC2B32017
:10012300B50D30B5FD7F301202F87F301203027532
:10013300B0FFC2B330B60302004330B6FD1201D2A2
:0301430002004374
:0A030E008FA0C290120281C2922259
:0502F300254DF8E6FFB7
:0A02F8008FA0D290120281C2922260
:08028100C291D2927F057E00BC
:10028900E4F54BF54CD3E54C9FE54B9E5018E4FD46
:10029900FC0DBD00010CBC03F8BDE8F5054CE54CAF
:0602A90070E3054B80DF4D
:0102AF00222C
:0C0302008F80742F254AF8A607054A22B8
:1001D200E4F54D742F254DF8E6FF7424254DF8E61D
:1001E2006F7035E54D640870577F0112030E7F80F2
:1001F20012030EE4F54D74181202F3054DE54DC3DA
:10020200940B40F2D293C2947F587E02120289C2AA
:1002120093C294E4F54A80287F0112030E7F801274
:10022200030EE4F54D74081202F3054DE54DC39437
:100232001040F27F2C7E01120289E4F54A1202B0CC
:0C024200054DE54DD39408408A0202DD12
:1002B0007F0112030E7F8012030E7F0212030EE4F1
:1002C000F52E743A252EF8E6FF1202F81202850583
:0D02D0002EE52ED3941040EA7FC002030EED
:1002DD00E4F52E742F252EF8E4F6052EE52EB40B3D
:0602ED00F27FC002030EC7
:03000000020146B4
:0C014600787FE4F6D8FD75814D02018D34
:10015200020003E493A3F8E493A34003F68001F2C0
:1001620008DFF48029E493A3F85407240CC8C333AE
:10017200C4540F4420C8834004F456800146F6DF7D
:10018200E4800B010204081020408090024EE47EBD
:10019200019360BCA3FF543F30E509541FFEE49372
:1001A200A360010ECF54C025E060A840B8E493A339
:1001B200FAE493A3F8E493A3C8C582C8CAC583CA64
:1001C200F0A3C8C582C8CAC583CADFE9DEE780BE1C
:01028000007D
:00000001FF
